{
  "_format": "hh-sol-artifact-1",
  "contractName": "CourseStorage",
  "sourceName": "contracts/CourseStorage.sol",
  "abi": [
    {
      "anonymous": false,
      "inputs": [
        {
          "indexed": true,
          "internalType": "uint256",
          "name": "courseId",
          "type": "uint256"
        },
        {
          "indexed": false,
          "internalType": "string",
          "name": "title",
          "type": "string"
        },
        {
          "indexed": false,
          "internalType": "address",
          "name": "author",
          "type": "address"
        },
        {
          "indexed": false,
          "internalType": "uint256",
          "name": "price",
          "type": "uint256"
        }
      ],
      "name": "CourseAdded",
      "type": "event"
    },
    {
      "anonymous": false,
      "inputs": [
        {
          "indexed": true,
          "internalType": "uint256",
          "name": "courseId",
          "type": "uint256"
        },
        {
          "indexed": false,
          "internalType": "address",
          "name": "from",
          "type": "address"
        },
        {
          "indexed": false,
          "internalType": "address",
          "name": "to",
          "type": "address"
        }
      ],
      "name": "CourseGifted",
      "type": "event"
    },
    {
      "anonymous": false,
      "inputs": [
        {
          "indexed": true,
          "internalType": "uint256",
          "name": "courseId",
          "type": "uint256"
        },
        {
          "indexed": false,
          "internalType": "address",
          "name": "buyer",
          "type": "address"
        }
      ],
      "name": "CoursePurchased",
      "type": "event"
    },
    {
      "inputs": [
        {
          "internalType": "string",
          "name": "_title",
          "type": "string"
        },
        {
          "internalType": "string",
          "name": "_description",
          "type": "string"
        },
        {
          "internalType": "string",
          "name": "_markdownContent",
          "type": "string"
        },
        {
          "internalType": "uint256",
          "name": "_price",
          "type": "uint256"
        }
      ],
      "name": "addCourse",
      "outputs": [],
      "stateMutability": "nonpayable",
      "type": "function"
    },
    {
      "inputs": [],
      "name": "courseCount",
      "outputs": [
        {
          "internalType": "uint256",
          "name": "",
          "type": "uint256"
        }
      ],
      "stateMutability": "view",
      "type": "function"
    },
    {
      "inputs": [
        {
          "internalType": "uint256",
          "name": "",
          "type": "uint256"
        }
      ],
      "name": "courses",
      "outputs": [
        {
          "internalType": "string",
          "name": "title",
          "type": "string"
        },
        {
          "internalType": "string",
          "name": "description",
          "type": "string"
        },
        {
          "internalType": "string",
          "name": "markdownContent",
          "type": "string"
        },
        {
          "internalType": "address",
          "name": "author",
          "type": "address"
        },
        {
          "internalType": "uint256",
          "name": "price",
          "type": "uint256"
        }
      ],
      "stateMutability": "view",
      "type": "function"
    },
    {
      "inputs": [
        {
          "internalType": "uint256",
          "name": "_id",
          "type": "uint256"
        }
      ],
      "name": "getCourse",
      "outputs": [
        {
          "components": [
            {
              "internalType": "string",
              "name": "title",
              "type": "string"
            },
            {
              "internalType": "string",
              "name": "description",
              "type": "string"
            },
            {
              "internalType": "string",
              "name": "markdownContent",
              "type": "string"
            },
            {
              "internalType": "address",
              "name": "author",
              "type": "address"
            },
            {
              "internalType": "uint256",
              "name": "price",
              "type": "uint256"
            }
          ],
          "internalType": "struct CourseStorage.Course",
          "name": "",
          "type": "tuple"
        }
      ],
      "stateMutability": "view",
      "type": "function"
    },
    {
      "inputs": [
        {
          "internalType": "address",
          "name": "_owner",
          "type": "address"
        }
      ],
      "name": "getOwnedCourses",
      "outputs": [
        {
          "internalType": "uint256[]",
          "name": "",
          "type": "uint256[]"
        }
      ],
      "stateMutability": "view",
      "type": "function"
    },
    {
      "inputs": [
        {
          "internalType": "uint256",
          "name": "_courseId",
          "type": "uint256"
        },
        {
          "internalType": "address",
          "name": "_recipient",
          "type": "address"
        }
      ],
      "name": "giftCourse",
      "outputs": [],
      "stateMutability": "payable",
      "type": "function"
    },
    {
      "inputs": [
        {
          "internalType": "address",
          "name": "",
          "type": "address"
        },
        {
          "internalType": "uint256",
          "name": "",
          "type": "uint256"
        }
      ],
      "name": "ownedCourses",
      "outputs": [
        {
          "internalType": "bool",
          "name": "",
          "type": "bool"
        }
      ],
      "stateMutability": "view",
      "type": "function"
    },
    {
      "inputs": [
        {
          "internalType": "address",
          "name": "_owner",
          "type": "address"
        },
        {
          "internalType": "uint256",
          "name": "_courseId",
          "type": "uint256"
        }
      ],
      "name": "ownsCourse",
      "outputs": [
        {
          "internalType": "bool",
          "name": "",
          "type": "bool"
        }
      ],
      "stateMutability": "view",
      "type": "function"
    },
    {
      "inputs": [
        {
          "internalType": "uint256",
          "name": "_courseId",
          "type": "uint256"
        }
      ],
      "name": "purchaseCourse",
      "outputs": [],
      "stateMutability": "payable",
      "type": "function"
    }
  ],
  "bytecode": "0x608060405234801561001057600080fd5b50611b9f806100206000396000f3fe6080604052600436106100865760003560e01c80636605515911610059578063660551591461014a57806396f979d214610175578063cd131938146101b6578063d18d8b13146101d2578063fde511421461020f57610086565b8063051c2d1c1461008b5780630a6c1a4d146100b45780630b91e28d146100d0578063336d1ef71461010d575b600080fd5b34801561009757600080fd5b506100b260048036038101906100ad9190611065565b61024c565b005b6100ce60048036038101906100c9919061117e565b6103fa565b005b3480156100dc57600080fd5b506100f760048036038101906100f291906111be565b610657565b604051610104919061130c565b60405180910390f35b34801561011957600080fd5b50610134600480360381019061012f919061132e565b610899565b604051610141919061140a565b60405180910390f35b34801561015657600080fd5b5061015f6109ab565b60405161016c919061143b565b60405180910390f35b34801561018157600080fd5b5061019c600480360381019061019791906111be565b6109b1565b6040516101ad9594939291906114af565b60405180910390f35b6101d060048036038101906101cb91906111be565b610b9f565b005b3480156101de57600080fd5b506101f960048036038101906101f49190611517565b610df9565b6040516102069190611572565b60405180910390f35b34801561021b57600080fd5b5061023660048036038101906102319190611517565b610e61565b6040516102439190611572565b60405180910390f35b6040518060a001604052808581526020018481526020018381526020013373ffffffffffffffffffffffffffffffffffffffff16815260200182815250600080600154815260200190815260200160002060008201518160000190816102b29190611799565b5060208201518160010190816102c89190611799565b5060408201518160020190816102de9190611799565b5060608201518160030160006101000a81548173ffffffffffffffffffffffffffffffffffffffff021916908373ffffffffffffffffffffffffffffffffffffffff160217905550608082015181600401559050506001600260003373ffffffffffffffffffffffffffffffffffffffff1673ffffffffffffffffffffffffffffffffffffffff1681526020019081526020016000206000600154815260200190815260200160002060006101000a81548160ff0219169083151502179055506001547f036492deeaf798e9cd3ad96ab5ac073b4d87fb0e4df7e6d500b7285e31586edd8533846040516103d49392919061186b565b60405180910390a2600160008154809291906103ef906118d8565b919050555050505050565b600154821061043e576040517f08c379a00000000000000000000000000000000000000000000000000000000081526004016104359061196c565b60405180910390fd5b600260008273ffffffffffffffffffffffffffffffffffffffff1673ffffffffffffffffffffffffffffffffffffffff168152602001908152602001600020600083815260200190815260200160002060009054906101000a900460ff16156104dc576040517f08c379a00000000000000000000000000000000000000000000000000000000081526004016104d3906119fe565b60405180910390fd5b60008083815260200190815260200160002060040154341015610534576040517f08c379a000000000000000000000000000000000000000000000000000000000815260040161052b90611a6a565b60405180910390fd5b6001600260008373ffffffffffffffffffffffffffffffffffffffff1673ffffffffffffffffffffffffffffffffffffffff168152602001908152602001600020600084815260200190815260200160002060006101000a81548160ff02191690831515021790555060008083815260200190815260200160002060030160009054906101000a900473ffffffffffffffffffffffffffffffffffffffff1673ffffffffffffffffffffffffffffffffffffffff166108fc349081150290604051600060405180830381858888f19350505050158015610618573d6000803e3d6000fd5b50817f391b1a15149581a79a9765f8766a2a79faab3a0bb80776bfe5a64a29005e364d338360405161064b929190611a8a565b60405180910390a25050565b61065f610e90565b6000808381526020019081526020016000206040518060a001604052908160008201805461068c906115bc565b80601f01602080910402602001604051908101604052809291908181526020018280546106b8906115bc565b80156107055780601f106106da57610100808354040283529160200191610705565b820191906000526020600020905b8154815290600101906020018083116106e857829003601f168201915b5050505050815260200160018201805461071e906115bc565b80601f016020809104026020016040519081016040528092919081815260200182805461074a906115bc565b80156107975780601f1061076c57610100808354040283529160200191610797565b820191906000526020600020905b81548152906001019060200180831161077a57829003601f168201915b505050505081526020016002820180546107b0906115bc565b80601f01602080910402602001604051908101604052809291908181526020018280546107dc906115bc565b80156108295780601f106107fe57610100808354040283529160200191610829565b820191906000526020600020905b81548152906001019060200180831161080c57829003601f168201915b505050505081526020016003820160009054906101000a900473ffffffffffffffffffffffffffffffffffffffff1673ffffffffffffffffffffffffffffffffffffffff1673ffffffffffffffffffffffffffffffffffffffff1681526020016004820154815250509050919050565b6060600060015467ffffffffffffffff8111156108b9576108b8610f04565b5b6040519080825280602002602001820160405280156108e75781602001602082028036833780820191505090505b5090506000805b60015481101561099d57600260008673ffffffffffffffffffffffffffffffffffffffff1673ffffffffffffffffffffffffffffffffffffffff168152602001908152602001600020600082815260200190815260200160002060009054906101000a900460ff161561098a578083838151811061096f5761096e611ab3565b5b6020026020010181815250508180610986906118d8565b9250505b8080610995906118d8565b9150506108ee565b508082528192505050919050565b60015481565b60006020528060005260406000206000915090508060000180546109d4906115bc565b80601f0160208091040260200160405190810160405280929190818152602001828054610a00906115bc565b8015610a4d5780601f10610a2257610100808354040283529160200191610a4d565b820191906000526020600020905b815481529060010190602001808311610a3057829003601f168201915b505050505090806001018054610a62906115bc565b80601f0160208091040260200160405190810160405280929190818152602001828054610a8e906115bc565b8015610adb5780601f10610ab057610100808354040283529160200191610adb565b820191906000526020600020905b815481529060010190602001808311610abe57829003601f168201915b505050505090806002018054610af0906115bc565b80601f0160208091040260200160405190810160405280929190818152602001828054610b1c906115bc565b8015610b695780601f10610b3e57610100808354040283529160200191610b69565b820191906000526020600020905b815481529060010190602001808311610b4c57829003601f168201915b5050505050908060030160009054906101000a900473ffffffffffffffffffffffffffffffffffffffff16908060040154905085565b6001548110610be3576040517f08c379a0000000000000000000000000000000000000000000000000000000008152600401610bda9061196c565b60405180910390fd5b600260003373ffffffffffffffffffffffffffffffffffffffff1673ffffffffffffffffffffffffffffffffffffffff168152602001908152602001600020600082815260200190815260200160002060009054906101000a900460ff1615610c81576040517f08c379a0000000000000000000000000000000000000000000000000000000008152600401610c7890611b2e565b60405180910390fd5b60008082815260200190815260200160002060040154341015610cd9576040517f08c379a0000000000000000000000000000000000000000000000000000000008152600401610cd090611a6a565b60405180910390fd5b6001600260003373ffffffffffffffffffffffffffffffffffffffff1673ffffffffffffffffffffffffffffffffffffffff168152602001908152602001600020600083815260200190815260200160002060006101000a81548160ff02191690831515021790555060008082815260200190815260200160002060030160009054906101000a900473ffffffffffffffffffffffffffffffffffffffff1673ffffffffffffffffffffffffffffffffffffffff166108fc349081150290604051600060405180830381858888f19350505050158015610dbd573d6000803e3d6000fd5b50807f8120f2f8a682e2fd88bad8beb5760b02b7fec7a59d2d9bebb84b3e277bc152d233604051610dee9190611b4e565b60405180910390a250565b6000600260008473ffffffffffffffffffffffffffffffffffffffff1673ffffffffffffffffffffffffffffffffffffffff168152602001908152602001600020600083815260200190815260200160002060009054906101000a900460ff16905092915050565b60026020528160005260406000206020528060005260406000206000915091509054906101000a900460ff1681565b6040518060a00160405280606081526020016060815260200160608152602001600073ffffffffffffffffffffffffffffffffffffffff168152602001600081525090565b6000604051905090565b600080fd5b600080fd5b600080fd5b600080fd5b6000601f19601f8301169050919050565b7f4e487b7100000000000000000000000000000000000000000000000000000000600052604160045260246000fd5b610f3c82610ef3565b810181811067ffffffffffffffff82111715610f5b57610f5a610f04565b5b80604052505050565b6000610f6e610ed5565b9050610f7a8282610f33565b919050565b600067ffffffffffffffff821115610f9a57610f99610f04565b5b610fa382610ef3565b9050602081019050919050565b82818337600083830152505050565b6000610fd2610fcd84610f7f565b610f64565b905082815260208101848484011115610fee57610fed610eee565b5b610ff9848285610fb0565b509392505050565b600082601f83011261101657611015610ee9565b5b8135611026848260208601610fbf565b91505092915050565b6000819050919050565b6110428161102f565b811461104d57600080fd5b50565b60008135905061105f81611039565b92915050565b6000806000806080858703121561107f5761107e610edf565b5b600085013567ffffffffffffffff81111561109d5761109c610ee4565b5b6110a987828801611001565b945050602085013567ffffffffffffffff8111156110ca576110c9610ee4565b5b6110d687828801611001565b935050604085013567ffffffffffffffff8111156110f7576110f6610ee4565b5b61110387828801611001565b925050606061111487828801611050565b91505092959194509250565b600073ffffffffffffffffffffffffffffffffffffffff82169050919050565b600061114b82611120565b9050919050565b61115b81611140565b811461116657600080fd5b50565b60008135905061117881611152565b92915050565b6000806040838503121561119557611194610edf565b5b60006111a385828601611050565b92505060206111b485828601611169565b9150509250929050565b6000602082840312156111d4576111d3610edf565b5b60006111e284828501611050565b91505092915050565b600081519050919050565b600082825260208201905092915050565b60005b8381101561122557808201518184015260208101905061120a565b60008484015250505050565b600061123c826111eb565b61124681856111f6565b9350611256818560208601611207565b61125f81610ef3565b840191505092915050565b61127381611140565b82525050565b6112828161102f565b82525050565b600060a08301600083015184820360008601526112a58282611231565b915050602083015184820360208601526112bf8282611231565b915050604083015184820360408601526112d98282611231565b91505060608301516112ee606086018261126a565b5060808301516113016080860182611279565b508091505092915050565b600060208201905081810360008301526113268184611288565b905092915050565b60006020828403121561134457611343610edf565b5b600061135284828501611169565b91505092915050565b600081519050919050565b600082825260208201905092915050565b6000819050602082019050919050565b60006113938383611279565b60208301905092915050565b6000602082019050919050565b60006113b78261135b565b6113c18185611366565b93506113cc83611377565b8060005b838110156113fd5781516113e48882611387565b97506113ef8361139f565b9250506001810190506113d0565b5085935050505092915050565b6000602082019050818103600083015261142481846113ac565b905092915050565b6114358161102f565b82525050565b6000602082019050611450600083018461142c565b92915050565b600082825260208201905092915050565b6000611472826111eb565b61147c8185611456565b935061148c818560208601611207565b61149581610ef3565b840191505092915050565b6114a981611140565b82525050565b600060a08201905081810360008301526114c98188611467565b905081810360208301526114dd8187611467565b905081810360408301526114f18186611467565b905061150060608301856114a0565b61150d608083018461142c565b9695505050505050565b6000806040838503121561152e5761152d610edf565b5b600061153c85828601611169565b925050602061154d85828601611050565b9150509250929050565b60008115159050919050565b61156c81611557565b82525050565b60006020820190506115876000830184611563565b92915050565b7f4e487b7100000000000000000000000000000000000000000000000000000000600052602260045260246000fd5b600060028204905060018216806115d457607f821691505b6020821081036115e7576115e661158d565b5b50919050565b60008190508160005260206000209050919050565b60006020601f8301049050919050565b600082821b905092915050565b60006008830261164f7fffffffffffffffffffffffffffffffffffffffffffffffffffffffffffffffff82611612565b6116598683611612565b95508019841693508086168417925050509392505050565b6000819050919050565b600061169661169161168c8461102f565b611671565b61102f565b9050919050565b6000819050919050565b6116b08361167b565b6116c46116bc8261169d565b84845461161f565b825550505050565b600090565b6116d96116cc565b6116e48184846116a7565b505050565b5b81811015611708576116fd6000826116d1565b6001810190506116ea565b5050565b601f82111561174d5761171e816115ed565b61172784611602565b81016020851015611736578190505b61174a61174285611602565b8301826116e9565b50505b505050565b600082821c905092915050565b600061177060001984600802611752565b1980831691505092915050565b6000611789838361175f565b9150826002028217905092915050565b6117a2826111eb565b67ffffffffffffffff8111156117bb576117ba610f04565b5b6117c582546115bc565b6117d082828561170c565b600060209050601f83116001811461180357600084156117f1578287015190505b6117fb858261177d565b865550611863565b601f198416611811866115ed565b60005b8281101561183957848901518255600182019150602085019450602081019050611814565b868310156118565784890151611852601f89168261175f565b8355505b6001600288020188555050505b505050505050565b600060608201905081810360008301526118858186611467565b905061189460208301856114a0565b6118a1604083018461142c565b949350505050565b7f4e487b7100000000000000000000000000000000000000000000000000000000600052601160045260246000fd5b60006118e38261102f565b91507fffffffffffffffffffffffffffffffffffffffffffffffffffffffffffffffff8203611915576119146118a9565b5b600182019050919050565b7f436f7572736520646f6573206e6f742065786973740000000000000000000000600082015250565b6000611956601583611456565b915061196182611920565b602082019050919050565b6000602082019050818103600083015261198581611949565b9050919050565b7f526563697069656e7420616c7265616479206f776e73207468697320636f757260008201527f7365000000000000000000000000000000000000000000000000000000000000602082015250565b60006119e8602283611456565b91506119f38261198c565b604082019050919050565b60006020820190508181036000830152611a17816119db565b9050919050565b7f496e73756666696369656e74207061796d656e74000000000000000000000000600082015250565b6000611a54601483611456565b9150611a5f82611a1e565b602082019050919050565b60006020820190508181036000830152611a8381611a47565b9050919050565b6000604082019050611a9f60008301856114a0565b611aac60208301846114a0565b9392505050565b7f4e487b7100000000000000000000000000000000000000000000000000000000600052603260045260246000fd5b7f596f7520616c7265616479206f776e207468697320636f757273650000000000600082015250565b6000611b18601b83611456565b9150611b2382611ae2565b602082019050919050565b60006020820190508181036000830152611b4781611b0b565b9050919050565b6000602082019050611b6360008301846114a0565b9291505056fea26469706673582212205b292901a7c3088d05b6ad9c50a8bb030255c7a9ef5a6f542ebb3e5317cc5a9264736f6c63430008130033",
  "linkReferences": {},
  "deployedLinkReferences": {}
}